{
  "_format": "hh-sol-artifact-1",
  "contractName": "Crypot",
  "sourceName": "contracts/Crypot.sol",
  "abi": [
    {
      "inputs": [
        {
          "internalType": "string",
          "name": "_name",
          "type": "string"
        },
        {
          "internalType": "string",
          "name": "_desc",
          "type": "string"
        },
        {
          "internalType": "address[]",
          "name": "_currencies",
          "type": "address[]"
        },
        {
          "internalType": "uint256[]",
          "name": "_units",
          "type": "uint256[]"
        },
        {
          "internalType": "address",
          "name": "_owner",
          "type": "address"
        }
      ],
      "stateMutability": "nonpayable",
      "type": "constructor"
    },
    {
      "inputs": [
        {
          "internalType": "address",
          "name": "",
          "type": "address"
        }
      ],
      "name": "accountAmtMap",
      "outputs": [
        {
          "internalType": "uint256",
          "name": "",
          "type": "uint256"
        }
      ],
      "stateMutability": "view",
      "type": "function"
    },
    {
      "inputs": [
        {
          "internalType": "address[]",
          "name": "_currencies",
          "type": "address[]"
        },
        {
          "internalType": "uint256[]",
          "name": "_units",
          "type": "uint256[]"
        }
      ],
      "name": "changeDistribution",
      "outputs": [],
      "stateMutability": "nonpayable",
      "type": "function"
    },
    {
      "inputs": [
        {
          "internalType": "uint256",
          "name": "",
          "type": "uint256"
        }
      ],
      "name": "currencies",
      "outputs": [
        {
          "internalType": "address",
          "name": "",
          "type": "address"
        }
      ],
      "stateMutability": "view",
      "type": "function"
    },
    {
      "inputs": [],
      "name": "description",
      "outputs": [
        {
          "internalType": "string",
          "name": "",
          "type": "string"
        }
      ],
      "stateMutability": "view",
      "type": "function"
    },
    {
      "inputs": [
        {
          "internalType": "address",
          "name": "",
          "type": "address"
        }
      ],
      "name": "distribution",
      "outputs": [
        {
          "internalType": "uint256",
          "name": "",
          "type": "uint256"
        }
      ],
      "stateMutability": "view",
      "type": "function"
    },
    {
      "inputs": [],
      "name": "getCrypotData",
      "outputs": [
        {
          "internalType": "string",
          "name": "_name",
          "type": "string"
        },
        {
          "internalType": "string",
          "name": "_description",
          "type": "string"
        },
        {
          "internalType": "address[]",
          "name": "_currencies",
          "type": "address[]"
        },
        {
          "internalType": "uint256[]",
          "name": "_units",
          "type": "uint256[]"
        },
        {
          "internalType": "address",
          "name": "_createdBy",
          "type": "address"
        },
        {
          "internalType": "uint256",
          "name": "_totalInvestors",
          "type": "uint256"
        }
      ],
      "stateMutability": "view",
      "type": "function"
    },
    {
      "inputs": [
        {
          "internalType": "address",
          "name": "_token",
          "type": "address"
        }
      ],
      "name": "getDistribution",
      "outputs": [
        {
          "internalType": "uint256",
          "name": "",
          "type": "uint256"
        }
      ],
      "stateMutability": "view",
      "type": "function"
    },
    {
      "inputs": [
        {
          "internalType": "address",
          "name": "",
          "type": "address"
        }
      ],
      "name": "hasInvested",
      "outputs": [
        {
          "internalType": "bool",
          "name": "",
          "type": "bool"
        }
      ],
      "stateMutability": "view",
      "type": "function"
    },
    {
      "inputs": [
        {
          "internalType": "uint256",
          "name": "_amt",
          "type": "uint256"
        }
      ],
      "name": "invest",
      "outputs": [
        {
          "internalType": "string",
          "name": "",
          "type": "string"
        }
      ],
      "stateMutability": "nonpayable",
      "type": "function"
    },
    {
      "inputs": [],
      "name": "investerCount",
      "outputs": [
        {
          "internalType": "uint256",
          "name": "",
          "type": "uint256"
        }
      ],
      "stateMutability": "view",
      "type": "function"
    },
    {
      "inputs": [
        {
          "internalType": "uint256",
          "name": "",
          "type": "uint256"
        }
      ],
      "name": "investors",
      "outputs": [
        {
          "internalType": "address",
          "name": "",
          "type": "address"
        }
      ],
      "stateMutability": "view",
      "type": "function"
    },
    {
      "inputs": [],
      "name": "isOwner",
      "outputs": [
        {
          "internalType": "bool",
          "name": "",
          "type": "bool"
        }
      ],
      "stateMutability": "view",
      "type": "function"
    },
    {
      "inputs": [],
      "name": "m_owner",
      "outputs": [
        {
          "internalType": "address",
          "name": "",
          "type": "address"
        }
      ],
      "stateMutability": "view",
      "type": "function"
    },
    {
      "inputs": [],
      "name": "name",
      "outputs": [
        {
          "internalType": "string",
          "name": "",
          "type": "string"
        }
      ],
      "stateMutability": "view",
      "type": "function"
    },
    {
      "inputs": [],
      "name": "pancakeSwap",
      "outputs": [
        {
          "internalType": "contract IPancakeSwap",
          "name": "",
          "type": "address"
        }
      ],
      "stateMutability": "view",
      "type": "function"
    },
    {
      "inputs": [
        {
          "internalType": "string",
          "name": "_newDescription",
          "type": "string"
        }
      ],
      "name": "setDescription",
      "outputs": [],
      "stateMutability": "nonpayable",
      "type": "function"
    },
    {
      "inputs": [
        {
          "internalType": "string",
          "name": "_newName",
          "type": "string"
        }
      ],
      "name": "setName",
      "outputs": [],
      "stateMutability": "nonpayable",
      "type": "function"
    },
    {
      "inputs": [
        {
          "internalType": "uint256",
          "name": "_amt",
          "type": "uint256"
        },
        {
          "internalType": "address",
          "name": "_tokenIn",
          "type": "address"
        },
        {
          "internalType": "address",
          "name": "_tokenOut",
          "type": "address"
        },
        {
          "internalType": "address",
          "name": "_to",
          "type": "address"
        }
      ],
      "name": "swap",
      "outputs": [
        {
          "internalType": "uint256[]",
          "name": "result",
          "type": "uint256[]"
        }
      ],
      "stateMutability": "nonpayable",
      "type": "function"
    },
    {
      "inputs": [
        {
          "internalType": "uint256",
          "name": "",
          "type": "uint256"
        }
      ],
      "name": "units",
      "outputs": [
        {
          "internalType": "uint256",
          "name": "",
          "type": "uint256"
        }
      ],
      "stateMutability": "view",
      "type": "function"
    }
  ],
  "bytecode": "0x6080604052737ef95a0fee0dd31b22626fa2e10ee6a223f8a684600a60006101000a81548173ffffffffffffffffffffffffffffffffffffffff021916908373ffffffffffffffffffffffffffffffffffffffff160217905550739ac64cc6e4415144c455bd8e4837fea55603e5c3600b60006101000a81548173ffffffffffffffffffffffffffffffffffffffff021916908373ffffffffffffffffffffffffffffffffffffffff160217905550348015620000bb57600080fd5b50604051620033fd380380620033fd8339818101604052810190620000e191906200069e565b815183511462000128576040517f08c379a00000000000000000000000000000000000000000000000000000000081526004016200011f90620007ab565b60405180910390fd5b84600090805190602001906200014092919062000329565b5083600190805190602001906200015992919062000329565b50826002908051906020019062000172929190620003ba565b5081600390805190602001906200018b92919062000449565b5080600560006101000a81548173ffffffffffffffffffffffffffffffffffffffff021916908373ffffffffffffffffffffffffffffffffffffffff16021790555060005b600280549050811015620002ba5782818151811062000218577f4e487b7100000000000000000000000000000000000000000000000000000000600052603260045260246000fd5b6020026020010151600460008684815181106200025e577f4e487b7100000000000000000000000000000000000000000000000000000000600052603260045260246000fd5b602002602001015173ffffffffffffffffffffffffffffffffffffffff1673ffffffffffffffffffffffffffffffffffffffff168152602001908152602001600020819055508080620002b1906200097b565b915050620001d0565b50600b60009054906101000a900473ffffffffffffffffffffffffffffffffffffffff16600c60006101000a81548173ffffffffffffffffffffffffffffffffffffffff021916908373ffffffffffffffffffffffffffffffffffffffff160217905550505050505062000ac4565b82805462000337906200090f565b90600052602060002090601f0160209004810192826200035b5760008555620003a7565b82601f106200037657805160ff1916838001178555620003a7565b82800160010185558215620003a7579182015b82811115620003a657825182559160200191906001019062000389565b5b509050620003b691906200049b565b5090565b82805482825590600052602060002090810192821562000436579160200282015b82811115620004355782518260006101000a81548173ffffffffffffffffffffffffffffffffffffffff021916908373ffffffffffffffffffffffffffffffffffffffff16021790555091602001919060010190620003db565b5b5090506200044591906200049b565b5090565b82805482825590600052602060002090810192821562000488579160200282015b82811115620004875782518255916020019190600101906200046a565b5b5090506200049791906200049b565b5090565b5b80821115620004b65760008160009055506001016200049c565b5090565b6000620004d1620004cb84620007f6565b620007cd565b90508083825260208201905082856020860282011115620004f157600080fd5b60005b858110156200052557816200050a8882620005e9565b845260208401935060208301925050600181019050620004f4565b5050509392505050565b600062000546620005408462000825565b620007cd565b905080838252602082019050828560208602820111156200056657600080fd5b60005b858110156200059a57816200057f888262000687565b84526020840193506020830192505060018101905062000569565b5050509392505050565b6000620005bb620005b58462000854565b620007cd565b905082815260208101848484011115620005d457600080fd5b620005e1848285620008d9565b509392505050565b600081519050620005fa8162000a90565b92915050565b600082601f8301126200061257600080fd5b815162000624848260208601620004ba565b91505092915050565b600082601f8301126200063f57600080fd5b8151620006518482602086016200052f565b91505092915050565b600082601f8301126200066c57600080fd5b81516200067e848260208601620005a4565b91505092915050565b600081519050620006988162000aaa565b92915050565b600080600080600060a08688031215620006b757600080fd5b600086015167ffffffffffffffff811115620006d257600080fd5b620006e0888289016200065a565b955050602086015167ffffffffffffffff811115620006fe57600080fd5b6200070c888289016200065a565b945050604086015167ffffffffffffffff8111156200072a57600080fd5b620007388882890162000600565b935050606086015167ffffffffffffffff8111156200075657600080fd5b62000764888289016200062d565b92505060806200077788828901620005e9565b9150509295509295909350565b6000620007936019836200088a565b9150620007a08262000a67565b602082019050919050565b60006020820190508181036000830152620007c68162000784565b9050919050565b6000620007d9620007ec565b9050620007e7828262000945565b919050565b6000604051905090565b600067ffffffffffffffff82111562000814576200081362000a27565b5b602082029050602081019050919050565b600067ffffffffffffffff82111562000843576200084262000a27565b5b602082029050602081019050919050565b600067ffffffffffffffff82111562000872576200087162000a27565b5b6200087d8262000a56565b9050602081019050919050565b600082825260208201905092915050565b6000620008a882620008af565b9050919050565b600073ffffffffffffffffffffffffffffffffffffffff82169050919050565b6000819050919050565b60005b83811015620008f9578082015181840152602081019050620008dc565b8381111562000909576000848401525b50505050565b600060028204905060018216806200092857607f821691505b602082108114156200093f576200093e620009f8565b5b50919050565b620009508262000a56565b810181811067ffffffffffffffff8211171562000972576200097162000a27565b5b80604052505050565b60006200098882620008cf565b91507fffffffffffffffffffffffffffffffffffffffffffffffffffffffffffffffff821415620009be57620009bd620009c9565b5b600182019050919050565b7f4e487b7100000000000000000000000000000000000000000000000000000000600052601160045260246000fd5b7f4e487b7100000000000000000000000000000000000000000000000000000000600052602260045260246000fd5b7f4e487b7100000000000000000000000000000000000000000000000000000000600052604160045260246000fd5b6000601f19601f8301169050919050565b7f696e76616c696420646973747269627574696f6e206461746100000000000000600082015250565b62000a9b816200089b565b811462000aa757600080fd5b50565b62000ab581620008cf565b811462000ac157600080fd5b50565b6129298062000ad46000396000f3fe608060405234801561001057600080fd5b50600436106101215760003560e01c806388156e65116100ad578063c85bf42211610071578063c85bf42214610335578063deff41c114610353578063e5fba6cc14610371578063edb9a5c0146103a1578063f6d1c271146103d157610121565b806388156e651461027f5780638f32d59b146102af57806390c3f38f146102cd578063c2db09c1146102e9578063c47f00271461031957610121565b8063375ba378116100f4578063375ba378146101c057806337d06a6b146101de5780633feb5f2b1461020e5780635026825a1461023e5780637284e4161461026157610121565b806306fdde031461012657806307ad6fd6146101445780631d850ed6146101605780632afcf48014610190575b600080fd5b61012e610401565b60405161013b919061214f565b60405180910390f35b61015e60048036038101906101599190611c02565b61048f565b005b61017a60048036038101906101759190611bd9565b610714565b604051610187919061228e565b60405180910390f35b6101aa60048036038101906101a59190611d19565b61075d565b6040516101b7919061214f565b60405180910390f35b6101c8610b41565b6040516101d59190612134565b60405180910390f35b6101f860048036038101906101f39190611bd9565b610b67565b604051610205919061228e565b60405180910390f35b61022860048036038101906102239190611d19565b610b7f565b6040516102359190612053565b60405180910390f35b610246610bbe565b60405161025896959493929190612171565b60405180910390f35b610269610dfb565b604051610276919061214f565b60405180910390f35b61029960048036038101906102949190611d6b565b610e89565b6040516102a691906120f7565b60405180910390f35b6102b7611168565b6040516102c49190612119565b60405180910390f35b6102e760048036038101906102e29190611cd8565b6111d1565b005b61030360048036038101906102fe9190611bd9565b611245565b604051610310919061228e565b60405180910390f35b610333600480360381019061032e9190611cd8565b61125d565b005b61033d6112d1565b60405161034a919061228e565b60405180910390f35b61035b6112d7565b6040516103689190612053565b60405180910390f35b61038b60048036038101906103869190611d19565b6112fd565b604051610398919061228e565b60405180910390f35b6103bb60048036038101906103b69190611bd9565b611321565b6040516103c89190612119565b60405180910390f35b6103eb60048036038101906103e69190611d19565b611341565b6040516103f89190612053565b60405180910390f35b6000805461040e906125f6565b80601f016020809104026020016040519081016040528092919081815260200182805461043a906125f6565b80156104875780601f1061045c57610100808354040283529160200191610487565b820191906000526020600020905b81548152906001019060200180831161046a57829003601f168201915b505050505081565b600560009054906101000a900473ffffffffffffffffffffffffffffffffffffffff1673ffffffffffffffffffffffffffffffffffffffff163373ffffffffffffffffffffffffffffffffffffffff16146104e957600080fd5b805182511461052d576040517f08c379a00000000000000000000000000000000000000000000000000000000081526004016105249061220e565b60405180910390fd5b60005b6002805490508110156105f9576000600460006002848154811061057d577f4e487b7100000000000000000000000000000000000000000000000000000000600052603260045260246000fd5b9060005260206000200160009054906101000a900473ffffffffffffffffffffffffffffffffffffffff1673ffffffffffffffffffffffffffffffffffffffff1673ffffffffffffffffffffffffffffffffffffffff1681526020019081526020016000208190555080806105f190612659565b915050610530565b5081600290805190602001906106109291906117e1565b50806003908051906020019061062792919061186b565b5060005b60028054905081101561070f57818181518110610671577f4e487b7100000000000000000000000000000000000000000000000000000000600052603260045260246000fd5b6020026020010151600460008584815181106106b6577f4e487b7100000000000000000000000000000000000000000000000000000000600052603260045260246000fd5b602002602001015173ffffffffffffffffffffffffffffffffffffffff1673ffffffffffffffffffffffffffffffffffffffff16815260200190815260200160002081905550808061070790612659565b91505061062b565b505050565b6000600460008373ffffffffffffffffffffffffffffffffffffffff1673ffffffffffffffffffffffffffffffffffffffff168152602001908152602001600020549050919050565b6060600a60009054906101000a900473ffffffffffffffffffffffffffffffffffffffff1673ffffffffffffffffffffffffffffffffffffffff166323b872dd3330856040518463ffffffff1660e01b81526004016107be93929190612097565b602060405180830381600087803b1580156107d857600080fd5b505af11580156107ec573d6000803e3d6000fd5b505050506040513d601f19601f820116820180604052508101906108109190611caf565b5060005b6002805490508110156109885760006004600060028481548110610861577f4e487b7100000000000000000000000000000000000000000000000000000000600052603260045260246000fd5b9060005260206000200160009054906101000a900473ffffffffffffffffffffffffffffffffffffffff1673ffffffffffffffffffffffffffffffffffffffff1673ffffffffffffffffffffffffffffffffffffffff16815260200190815260200160002054612710856108d591906124ab565b6108df91906124dc565b905061097381600a60009054906101000a900473ffffffffffffffffffffffffffffffffffffffff1660028581548110610942577f4e487b7100000000000000000000000000000000000000000000000000000000600052603260045260246000fd5b9060005260206000200160009054906101000a900473ffffffffffffffffffffffffffffffffffffffff1633610e89565b5050808061098090612659565b915050610814565b5081600860003373ffffffffffffffffffffffffffffffffffffffff1673ffffffffffffffffffffffffffffffffffffffff16815260200190815260200160002060008282546109d89190612455565b92505081905550600960003373ffffffffffffffffffffffffffffffffffffffff1673ffffffffffffffffffffffffffffffffffffffff16815260200190815260200160002060009054906101000a900460ff16610b04576007339080600181540180825580915050600190039060005260206000200160009091909190916101000a81548173ffffffffffffffffffffffffffffffffffffffff021916908373ffffffffffffffffffffffffffffffffffffffff1602179055506001600960003373ffffffffffffffffffffffffffffffffffffffff1673ffffffffffffffffffffffffffffffffffffffff16815260200190815260200160002060006101000a81548160ff02191690831515021790555060066000815480929190610afe90612659565b91905055505b6040518060400160405280600281526020017f68690000000000000000000000000000000000000000000000000000000000008152509050919050565b600c60009054906101000a900473ffffffffffffffffffffffffffffffffffffffff1681565b60086020528060005260406000206000915090505481565b60078181548110610b8f57600080fd5b906000526020600020016000915054906101000a900473ffffffffffffffffffffffffffffffffffffffff1681565b6060806060806000806000600160026003600560009054906101000a900473ffffffffffffffffffffffffffffffffffffffff16600654858054610c01906125f6565b80601f0160208091040260200160405190810160405280929190818152602001828054610c2d906125f6565b8015610c7a5780601f10610c4f57610100808354040283529160200191610c7a565b820191906000526020600020905b815481529060010190602001808311610c5d57829003601f168201915b50505050509550848054610c8d906125f6565b80601f0160208091040260200160405190810160405280929190818152602001828054610cb9906125f6565b8015610d065780601f10610cdb57610100808354040283529160200191610d06565b820191906000526020600020905b815481529060010190602001808311610ce957829003601f168201915b5050505050945083805480602002602001604051908101604052809291908181526020018280548015610d8e57602002820191906000526020600020905b8160009054906101000a900473ffffffffffffffffffffffffffffffffffffffff1673ffffffffffffffffffffffffffffffffffffffff1681526020019060010190808311610d44575b5050505050935082805480602002602001604051908101604052809291908181526020018280548015610de057602002820191906000526020600020905b815481526020019060010190808311610dcc575b50505050509250955095509550955095509550909192939495565b60018054610e08906125f6565b80601f0160208091040260200160405190810160405280929190818152602001828054610e34906125f6565b8015610e815780601f10610e5657610100808354040283529160200191610e81565b820191906000526020600020905b815481529060010190602001808311610e6457829003601f168201915b505050505081565b60606000600267ffffffffffffffff811115610ece577f4e487b7100000000000000000000000000000000000000000000000000000000600052604160045260246000fd5b604051908082528060200260200182016040528015610efc5781602001602082028036833780820191505090505b5090508481600081518110610f3a577f4e487b7100000000000000000000000000000000000000000000000000000000600052603260045260246000fd5b602002602001019073ffffffffffffffffffffffffffffffffffffffff16908173ffffffffffffffffffffffffffffffffffffffff16815250508381600181518110610faf577f4e487b7100000000000000000000000000000000000000000000000000000000600052603260045260246000fd5b602002602001019073ffffffffffffffffffffffffffffffffffffffff16908173ffffffffffffffffffffffffffffffffffffffff1681525050611036600c60009054906101000a900473ffffffffffffffffffffffffffffffffffffffff16878773ffffffffffffffffffffffffffffffffffffffff166113809092919063ffffffff16565b600c60009054906101000a900473ffffffffffffffffffffffffffffffffffffffff1673ffffffffffffffffffffffffffffffffffffffff166338ed17398760008430426040518663ffffffff1660e01b815260040161109a9594939291906122a9565b600060405180830381600087803b1580156110b457600080fd5b505af11580156110c8573d6000803e3d6000fd5b505050506040513d6000823e3d601f19601f820116820180604052508101906110f19190611c6e565b915061115f8383600181518110611131577f4e487b7100000000000000000000000000000000000000000000000000000000600052603260045260246000fd5b60200260200101518673ffffffffffffffffffffffffffffffffffffffff166114de9092919063ffffffff16565b50949350505050565b6000600560009054906101000a900473ffffffffffffffffffffffffffffffffffffffff1673ffffffffffffffffffffffffffffffffffffffff163373ffffffffffffffffffffffffffffffffffffffff1614156111c957600190506111ce565b600090505b90565b600560009054906101000a900473ffffffffffffffffffffffffffffffffffffffff1673ffffffffffffffffffffffffffffffffffffffff163373ffffffffffffffffffffffffffffffffffffffff161461122b57600080fd5b80600190805190602001906112419291906118b8565b5050565b60046020528060005260406000206000915090505481565b600560009054906101000a900473ffffffffffffffffffffffffffffffffffffffff1673ffffffffffffffffffffffffffffffffffffffff163373ffffffffffffffffffffffffffffffffffffffff16146112b757600080fd5b80600090805190602001906112cd9291906118b8565b5050565b60065481565b600560009054906101000a900473ffffffffffffffffffffffffffffffffffffffff1681565b6003818154811061130d57600080fd5b906000526020600020016000915090505481565b60096020528060005260406000206000915054906101000a900460ff1681565b6002818154811061135157600080fd5b906000526020600020016000915054906101000a900473ffffffffffffffffffffffffffffffffffffffff1681565b6000811480611419575060008373ffffffffffffffffffffffffffffffffffffffff1663dd62ed3e30856040518363ffffffff1660e01b81526004016113c792919061206e565b60206040518083038186803b1580156113df57600080fd5b505afa1580156113f3573d6000803e3d6000fd5b505050506040513d601f19601f820116820180604052508101906114179190611d42565b145b611458576040517f08c379a000000000000000000000000000000000000000000000000000000000815260040161144f9061226e565b60405180910390fd5b6114d98363095ea7b360e01b84846040516024016114779291906120ce565b604051602081830303815290604052907bffffffffffffffffffffffffffffffffffffffffffffffffffffffff19166020820180517bffffffffffffffffffffffffffffffffffffffffffffffffffffffff8381831617835250505050611564565b505050565b61155f8363a9059cbb60e01b84846040516024016114fd9291906120ce565b604051602081830303815290604052907bffffffffffffffffffffffffffffffffffffffffffffffffffffffff19166020820180517bffffffffffffffffffffffffffffffffffffffffffffffffffffffff8381831617835250505050611564565b505050565b60006115c6826040518060400160405280602081526020017f5361666545524332303a206c6f772d6c6576656c2063616c6c206661696c65648152508573ffffffffffffffffffffffffffffffffffffffff1661162b9092919063ffffffff16565b905060008151111561162657808060200190518101906115e69190611caf565b611625576040517f08c379a000000000000000000000000000000000000000000000000000000000815260040161161c9061224e565b60405180910390fd5b5b505050565b606061163a8484600085611643565b90509392505050565b606082471015611688576040517f08c379a000000000000000000000000000000000000000000000000000000000815260040161167f906121ee565b60405180910390fd5b61169185611757565b6116d0576040517f08c379a00000000000000000000000000000000000000000000000000000000081526004016116c79061222e565b60405180910390fd5b6000808673ffffffffffffffffffffffffffffffffffffffff1685876040516116f9919061203c565b60006040518083038185875af1925050503d8060008114611736576040519150601f19603f3d011682016040523d82523d6000602084013e61173b565b606091505b509150915061174b82828661177a565b92505050949350505050565b6000808273ffffffffffffffffffffffffffffffffffffffff163b119050919050565b6060831561178a578290506117da565b60008351111561179d5782518084602001fd5b816040517f08c379a00000000000000000000000000000000000000000000000000000000081526004016117d1919061214f565b60405180910390fd5b9392505050565b82805482825590600052602060002090810192821561185a579160200282015b828111156118595782518260006101000a81548173ffffffffffffffffffffffffffffffffffffffff021916908373ffffffffffffffffffffffffffffffffffffffff16021790555091602001919060010190611801565b5b509050611867919061193e565b5090565b8280548282559060005260206000209081019282156118a7579160200282015b828111156118a657825182559160200191906001019061188b565b5b5090506118b4919061193e565b5090565b8280546118c4906125f6565b90600052602060002090601f0160209004810192826118e6576000855561192d565b82601f106118ff57805160ff191683800117855561192d565b8280016001018555821561192d579182015b8281111561192c578251825591602001919060010190611911565b5b50905061193a919061193e565b5090565b5b8082111561195757600081600090555060010161193f565b5090565b600061196e61196984612328565b612303565b9050808382526020820190508285602086028201111561198d57600080fd5b60005b858110156119bd57816119a38882611add565b845260208401935060208301925050600181019050611990565b5050509392505050565b60006119da6119d584612354565b612303565b905080838252602082019050828560208602820111156119f957600080fd5b60005b85811015611a295781611a0f8882611baf565b8452602084019350602083019250506001810190506119fc565b5050509392505050565b6000611a46611a4184612354565b612303565b90508083825260208201905082856020860282011115611a6557600080fd5b60005b85811015611a955781611a7b8882611bc4565b845260208401935060208301925050600181019050611a68565b5050509392505050565b6000611ab2611aad84612380565b612303565b905082815260208101848484011115611aca57600080fd5b611ad58482856125b4565b509392505050565b600081359050611aec816128ae565b92915050565b600082601f830112611b0357600080fd5b8135611b1384826020860161195b565b91505092915050565b600082601f830112611b2d57600080fd5b8135611b3d8482602086016119c7565b91505092915050565b600082601f830112611b5757600080fd5b8151611b67848260208601611a33565b91505092915050565b600081519050611b7f816128c5565b92915050565b600082601f830112611b9657600080fd5b8135611ba6848260208601611a9f565b91505092915050565b600081359050611bbe816128dc565b92915050565b600081519050611bd3816128dc565b92915050565b600060208284031215611beb57600080fd5b6000611bf984828501611add565b91505092915050565b60008060408385031215611c1557600080fd5b600083013567ffffffffffffffff811115611c2f57600080fd5b611c3b85828601611af2565b925050602083013567ffffffffffffffff811115611c5857600080fd5b611c6485828601611b1c565b9150509250929050565b600060208284031215611c8057600080fd5b600082015167ffffffffffffffff811115611c9a57600080fd5b611ca684828501611b46565b91505092915050565b600060208284031215611cc157600080fd5b6000611ccf84828501611b70565b91505092915050565b600060208284031215611cea57600080fd5b600082013567ffffffffffffffff811115611d0457600080fd5b611d1084828501611b85565b91505092915050565b600060208284031215611d2b57600080fd5b6000611d3984828501611baf565b91505092915050565b600060208284031215611d5457600080fd5b6000611d6284828501611bc4565b91505092915050565b60008060008060808587031215611d8157600080fd5b6000611d8f87828801611baf565b9450506020611da087828801611add565b9350506040611db187828801611add565b9250506060611dc287828801611add565b91505092959194509250565b6000611dda8383611dfe565b60208301905092915050565b6000611df2838361201e565b60208301905092915050565b611e0781612536565b82525050565b611e1681612536565b82525050565b6000611e27826123d1565b611e318185612417565b9350611e3c836123b1565b8060005b83811015611e6d578151611e548882611dce565b9750611e5f836123fd565b925050600181019050611e40565b5085935050505092915050565b6000611e85826123dc565b611e8f8185612428565b9350611e9a836123c1565b8060005b83811015611ecb578151611eb28882611de6565b9750611ebd8361240a565b925050600181019050611e9e565b5085935050505092915050565b611ee181612548565b82525050565b6000611ef2826123e7565b611efc8185612439565b9350611f0c8185602086016125c3565b80840191505092915050565b611f218161257e565b82525050565b611f30816125a2565b82525050565b6000611f41826123f2565b611f4b8185612444565b9350611f5b8185602086016125c3565b611f648161275e565b840191505092915050565b6000611f7c602683612444565b9150611f878261276f565b604082019050919050565b6000611f9f601983612444565b9150611faa826127be565b602082019050919050565b6000611fc2601d83612444565b9150611fcd826127e7565b602082019050919050565b6000611fe5602a83612444565b9150611ff082612810565b604082019050919050565b6000612008603683612444565b91506120138261285f565b604082019050919050565b61202781612574565b82525050565b61203681612574565b82525050565b60006120488284611ee7565b915081905092915050565b60006020820190506120686000830184611e0d565b92915050565b60006040820190506120836000830185611e0d565b6120906020830184611e0d565b9392505050565b60006060820190506120ac6000830186611e0d565b6120b96020830185611e0d565b6120c6604083018461202d565b949350505050565b60006040820190506120e36000830185611e0d565b6120f0602083018461202d565b9392505050565b600060208201905081810360008301526121118184611e7a565b905092915050565b600060208201905061212e6000830184611ed8565b92915050565b60006020820190506121496000830184611f18565b92915050565b600060208201905081810360008301526121698184611f36565b905092915050565b600060c082019050818103600083015261218b8189611f36565b9050818103602083015261219f8188611f36565b905081810360408301526121b38187611e1c565b905081810360608301526121c78186611e7a565b90506121d66080830185611e0d565b6121e360a083018461202d565b979650505050505050565b6000602082019050818103600083015261220781611f6f565b9050919050565b6000602082019050818103600083015261222781611f92565b9050919050565b6000602082019050818103600083015261224781611fb5565b9050919050565b6000602082019050818103600083015261226781611fd8565b9050919050565b6000602082019050818103600083015261228781611ffb565b9050919050565b60006020820190506122a3600083018461202d565b92915050565b600060a0820190506122be600083018861202d565b6122cb6020830187611f27565b81810360408301526122dd8186611e1c565b90506122ec6060830185611e0d565b6122f9608083018461202d565b9695505050505050565b600061230d61231e565b90506123198282612628565b919050565b6000604051905090565b600067ffffffffffffffff8211156123435761234261272f565b5b602082029050602081019050919050565b600067ffffffffffffffff82111561236f5761236e61272f565b5b602082029050602081019050919050565b600067ffffffffffffffff82111561239b5761239a61272f565b5b6123a48261275e565b9050602081019050919050565b6000819050602082019050919050565b6000819050602082019050919050565b600081519050919050565b600081519050919050565b600081519050919050565b600081519050919050565b6000602082019050919050565b6000602082019050919050565b600082825260208201905092915050565b600082825260208201905092915050565b600081905092915050565b600082825260208201905092915050565b600061246082612574565b915061246b83612574565b9250827fffffffffffffffffffffffffffffffffffffffffffffffffffffffffffffffff038211156124a05761249f6126a2565b5b828201905092915050565b60006124b682612574565b91506124c183612574565b9250826124d1576124d06126d1565b5b828204905092915050565b60006124e782612574565b91506124f283612574565b9250817fffffffffffffffffffffffffffffffffffffffffffffffffffffffffffffffff048311821515161561252b5761252a6126a2565b5b828202905092915050565b600061254182612554565b9050919050565b60008115159050919050565b600073ffffffffffffffffffffffffffffffffffffffff82169050919050565b6000819050919050565b600061258982612590565b9050919050565b600061259b82612554565b9050919050565b60006125ad82612574565b9050919050565b82818337600083830152505050565b60005b838110156125e15780820151818401526020810190506125c6565b838111156125f0576000848401525b50505050565b6000600282049050600182168061260e57607f821691505b6020821081141561262257612621612700565b5b50919050565b6126318261275e565b810181811067ffffffffffffffff821117156126505761264f61272f565b5b80604052505050565b600061266482612574565b91507fffffffffffffffffffffffffffffffffffffffffffffffffffffffffffffffff821415612697576126966126a2565b5b600182019050919050565b7f4e487b7100000000000000000000000000000000000000000000000000000000600052601160045260246000fd5b7f4e487b7100000000000000000000000000000000000000000000000000000000600052601260045260246000fd5b7f4e487b7100000000000000000000000000000000000000000000000000000000600052602260045260246000fd5b7f4e487b7100000000000000000000000000000000000000000000000000000000600052604160045260246000fd5b6000601f19601f8301169050919050565b7f416464726573733a20696e73756666696369656e742062616c616e636520666f60008201527f722063616c6c0000000000000000000000000000000000000000000000000000602082015250565b7f696e76616c696420646973747269627574696f6e206461746100000000000000600082015250565b7f416464726573733a2063616c6c20746f206e6f6e2d636f6e7472616374000000600082015250565b7f5361666545524332303a204552433230206f7065726174696f6e20646964206e60008201527f6f74207375636365656400000000000000000000000000000000000000000000602082015250565b7f5361666545524332303a20617070726f76652066726f6d206e6f6e2d7a65726f60008201527f20746f206e6f6e2d7a65726f20616c6c6f77616e636500000000000000000000602082015250565b6128b781612536565b81146128c257600080fd5b50565b6128ce81612548565b81146128d957600080fd5b50565b6128e581612574565b81146128f057600080fd5b5056fea26469706673582212208f91ae98e37b1ff4834bb5518f9d569aec368f48eb1774e55e4a4e6920da111c64736f6c63430008040033",
  "linkReferences": {},
  "deployedLinkReferences": {}
}