{
  "_format": "hh-sol-artifact-1",
  "contractName": "Swap",
  "sourceName": "contracts/Swap.sol",
  "abi": [
    {
      "inputs": [],
      "stateMutability": "nonpayable",
      "type": "constructor"
    },
    {
      "inputs": [],
      "name": "pancakeSwap",
      "outputs": [
        {
          "internalType": "contract IPancakeSwap",
          "name": "",
          "type": "address"
        }
      ],
      "stateMutability": "view",
      "type": "function"
    },
    {
      "inputs": [
        {
          "internalType": "uint256",
          "name": "_amt",
          "type": "uint256"
        },
        {
          "internalType": "address",
          "name": "_tokenIn",
          "type": "address"
        },
        {
          "internalType": "address",
          "name": "_tokenOut",
          "type": "address"
        },
        {
          "internalType": "address",
          "name": "_to",
          "type": "address"
        }
      ],
      "name": "swap",
      "outputs": [
        {
          "internalType": "uint256[]",
          "name": "result",
          "type": "uint256[]"
        }
      ],
      "stateMutability": "nonpayable",
      "type": "function"
    },
    {
      "inputs": [
        {
          "internalType": "address[]",
          "name": "_currencyInArray",
          "type": "address[]"
        },
        {
          "internalType": "uint256[]",
          "name": "_distributionArray",
          "type": "uint256[]"
        },
        {
          "internalType": "address[]",
          "name": "_currencyOutArray",
          "type": "address[]"
        },
        {
          "internalType": "uint256[]",
          "name": "_amtDistribution",
          "type": "uint256[]"
        }
      ],
      "name": "swapManyForMany",
      "outputs": [],
      "stateMutability": "nonpayable",
      "type": "function"
    },
    {
      "inputs": [
        {
          "internalType": "address[]",
          "name": "_currencyArray",
          "type": "address[]"
        },
        {
          "internalType": "uint256[]",
          "name": "_amtDistribution",
          "type": "uint256[]"
        },
        {
          "internalType": "address",
          "name": "_tokenOut",
          "type": "address"
        }
      ],
      "name": "swapManyForOne",
      "outputs": [],
      "stateMutability": "nonpayable",
      "type": "function"
    },
    {
      "inputs": [
        {
          "internalType": "uint256",
          "name": "_amt",
          "type": "uint256"
        },
        {
          "internalType": "address",
          "name": "_tokenIn",
          "type": "address"
        },
        {
          "internalType": "address[]",
          "name": "_currencyArray",
          "type": "address[]"
        },
        {
          "internalType": "uint256[]",
          "name": "_distributionArray",
          "type": "uint256[]"
        }
      ],
      "name": "swapOneForMany",
      "outputs": [],
      "stateMutability": "nonpayable",
      "type": "function"
    }
  ],
  "bytecode": "0x6080604052739ac64cc6e4415144c455bd8e4837fea55603e5c36000806101000a81548173ffffffffffffffffffffffffffffffffffffffff021916908373ffffffffffffffffffffffffffffffffffffffff160217905550737ef95a0fee0dd31b22626fa2e10ee6a223f8a684600160006101000a81548173ffffffffffffffffffffffffffffffffffffffff021916908373ffffffffffffffffffffffffffffffffffffffff1602179055503480156100b957600080fd5b5060008054906101000a900473ffffffffffffffffffffffffffffffffffffffff16600260006101000a81548173ffffffffffffffffffffffffffffffffffffffff021916908373ffffffffffffffffffffffffffffffffffffffff160217905550611e808061012a6000396000f3fe608060405234801561001057600080fd5b50600436106100575760003560e01c8063375ba3781461005c5780633ed5de861461007a57806388156e6514610096578063c3f78490146100c6578063cb10ab96146100e2575b600080fd5b6100646100fe565b60405161007191906117c4565b60405180910390f35b610094600480360381019061008f91906111d8565b610124565b005b6100b060048036038101906100ab91906113ad565b61032a565b6040516100bd91906117a2565b60405180910390f35b6100e060048036038101906100db9190611257565b610609565b005b6100fc60048036038101906100f79190611410565b6109bc565b005b600260009054906101000a900473ffffffffffffffffffffffffffffffffffffffff1681565b8151835114610168576040517f08c379a000000000000000000000000000000000000000000000000000000000815260040161015f90611801565b60405180910390fd5b60005b8351811015610324578381815181106101ad577f4e487b7100000000000000000000000000000000000000000000000000000000600052603260045260246000fd5b602002602001015173ffffffffffffffffffffffffffffffffffffffff166323b872dd333086858151811061020b577f4e487b7100000000000000000000000000000000000000000000000000000000600052603260045260246000fd5b60200260200101516040518463ffffffff1660e01b815260040161023193929190611742565b602060405180830381600087803b15801561024b57600080fd5b505af115801561025f573d6000803e3d6000fd5b505050506040513d601f19601f82011682018060405250810190610283919061135b565b506103108382815181106102c0577f4e487b7100000000000000000000000000000000000000000000000000000000600052603260045260246000fd5b6020026020010151858381518110610301577f4e487b7100000000000000000000000000000000000000000000000000000000600052603260045260246000fd5b6020026020010151843361032a565b50808061031c90611bdf565b91505061016b565b50505050565b60606000600267ffffffffffffffff81111561036f577f4e487b7100000000000000000000000000000000000000000000000000000000600052604160045260246000fd5b60405190808252806020026020018201604052801561039d5781602001602082028036833780820191505090505b50905084816000815181106103db577f4e487b7100000000000000000000000000000000000000000000000000000000600052603260045260246000fd5b602002602001019073ffffffffffffffffffffffffffffffffffffffff16908173ffffffffffffffffffffffffffffffffffffffff16815250508381600181518110610450577f4e487b7100000000000000000000000000000000000000000000000000000000600052603260045260246000fd5b602002602001019073ffffffffffffffffffffffffffffffffffffffff16908173ffffffffffffffffffffffffffffffffffffffff16815250506104d7600260009054906101000a900473ffffffffffffffffffffffffffffffffffffffff16878773ffffffffffffffffffffffffffffffffffffffff16610b619092919063ffffffff16565b600260009054906101000a900473ffffffffffffffffffffffffffffffffffffffff1673ffffffffffffffffffffffffffffffffffffffff166338ed17398760008430426040518663ffffffff1660e01b815260040161053b9594939291906118a1565b600060405180830381600087803b15801561055557600080fd5b505af1158015610569573d6000803e3d6000fd5b505050506040513d6000823e3d601f19601f82011682018060405250810190610592919061131a565b915061060083836001815181106105d2577f4e487b7100000000000000000000000000000000000000000000000000000000600052603260045260246000fd5b60200260200101518673ffffffffffffffffffffffffffffffffffffffff16610cbf9092919063ffffffff16565b50949350505050565b825184511461064d576040517f08c379a000000000000000000000000000000000000000000000000000000000815260040161064490611801565b60405180910390fd5b8051825114610691576040517f08c379a000000000000000000000000000000000000000000000000000000000815260040161068890611801565b60405180910390fd5b600080600090505b85518110156108c7578581815181106106db577f4e487b7100000000000000000000000000000000000000000000000000000000600052603260045260246000fd5b602002602001015173ffffffffffffffffffffffffffffffffffffffff166323b872dd3330868581518110610739577f4e487b7100000000000000000000000000000000000000000000000000000000600052603260045260246000fd5b60200260200101516040518463ffffffff1660e01b815260040161075f93929190611742565b602060405180830381600087803b15801561077957600080fd5b505af115801561078d573d6000803e3d6000fd5b505050506040513d601f19601f820116820180604052508101906107b1919061135b565b5060006108628483815181106107f0577f4e487b7100000000000000000000000000000000000000000000000000000000600052603260045260246000fd5b6020026020010151888481518110610831577f4e487b7100000000000000000000000000000000000000000000000000000000600052603260045260246000fd5b6020026020010151600160009054906101000a900473ffffffffffffffffffffffffffffffffffffffff163061032a565b90508060018151811061089e577f4e487b7100000000000000000000000000000000000000000000000000000000600052603260045260246000fd5b6020026020010151836108b19190611a1c565b92505080806108bf90611bdf565b915050610699565b5060005b83518110156109b457600085828151811061090f577f4e487b7100000000000000000000000000000000000000000000000000000000600052603260045260246000fd5b6020026020010151612710846109259190611a72565b61092f9190611aa3565b905061099f81600160009054906101000a900473ffffffffffffffffffffffffffffffffffffffff16878581518110610991577f4e487b7100000000000000000000000000000000000000000000000000000000600052603260045260246000fd5b60200260200101513361032a565b505080806109ac90611bdf565b9150506108cb565b505050505050565b8051825114610a00576040517f08c379a00000000000000000000000000000000000000000000000000000000081526004016109f790611801565b60405180910390fd5b8273ffffffffffffffffffffffffffffffffffffffff166323b872dd3330876040518463ffffffff1660e01b8152600401610a3d93929190611742565b602060405180830381600087803b158015610a5757600080fd5b505af1158015610a6b573d6000803e3d6000fd5b505050506040513d601f19601f82011682018060405250810190610a8f919061135b565b5060005b8251811015610b5a576000828281518110610ad7577f4e487b7100000000000000000000000000000000000000000000000000000000600052603260045260246000fd5b602002602001015161271087610aed9190611a72565b610af79190611aa3565b9050610b458186868581518110610b37577f4e487b7100000000000000000000000000000000000000000000000000000000600052603260045260246000fd5b60200260200101513361032a565b50508080610b5290611bdf565b915050610a93565b5050505050565b6000811480610bfa575060008373ffffffffffffffffffffffffffffffffffffffff1663dd62ed3e30856040518363ffffffff1660e01b8152600401610ba8929190611719565b60206040518083038186803b158015610bc057600080fd5b505afa158015610bd4573d6000803e3d6000fd5b505050506040513d601f19601f82011682018060405250810190610bf89190611384565b145b610c39576040517f08c379a0000000000000000000000000000000000000000000000000000000008152600401610c3090611881565b60405180910390fd5b610cba8363095ea7b360e01b8484604051602401610c58929190611779565b604051602081830303815290604052907bffffffffffffffffffffffffffffffffffffffffffffffffffffffff19166020820180517bffffffffffffffffffffffffffffffffffffffffffffffffffffffff8381831617835250505050610d45565b505050565b610d408363a9059cbb60e01b8484604051602401610cde929190611779565b604051602081830303815290604052907bffffffffffffffffffffffffffffffffffffffffffffffffffffffff19166020820180517bffffffffffffffffffffffffffffffffffffffffffffffffffffffff8381831617835250505050610d45565b505050565b6000610da7826040518060400160405280602081526020017f5361666545524332303a206c6f772d6c6576656c2063616c6c206661696c65648152508573ffffffffffffffffffffffffffffffffffffffff16610e0c9092919063ffffffff16565b9050600081511115610e075780806020019051810190610dc7919061135b565b610e06576040517f08c379a0000000000000000000000000000000000000000000000000000000008152600401610dfd90611861565b60405180910390fd5b5b505050565b6060610e1b8484600085610e24565b90509392505050565b606082471015610e69576040517f08c379a0000000000000000000000000000000000000000000000000000000008152600401610e6090611821565b60405180910390fd5b610e7285610f38565b610eb1576040517f08c379a0000000000000000000000000000000000000000000000000000000008152600401610ea890611841565b60405180910390fd5b6000808673ffffffffffffffffffffffffffffffffffffffff168587604051610eda9190611702565b60006040518083038185875af1925050503d8060008114610f17576040519150601f19603f3d011682016040523d82523d6000602084013e610f1c565b606091505b5091509150610f2c828286610f5b565b92505050949350505050565b6000808273ffffffffffffffffffffffffffffffffffffffff163b119050919050565b60608315610f6b57829050610fbb565b600083511115610f7e5782518084602001fd5b816040517f08c379a0000000000000000000000000000000000000000000000000000000008152600401610fb291906117df565b60405180910390fd5b9392505050565b6000610fd5610fd084611920565b6118fb565b90508083825260208201905082856020860282011115610ff457600080fd5b60005b85811015611024578161100a8882611106565b845260208401935060208301925050600181019050610ff7565b5050509392505050565b600061104161103c8461194c565b6118fb565b9050808382526020820190508285602086028201111561106057600080fd5b60005b85811015611090578161107688826111ae565b845260208401935060208301925050600181019050611063565b5050509392505050565b60006110ad6110a88461194c565b6118fb565b905080838252602082019050828560208602820111156110cc57600080fd5b60005b858110156110fc57816110e288826111c3565b8452602084019350602083019250506001810190506110cf565b5050509392505050565b60008135905061111581611e05565b92915050565b600082601f83011261112c57600080fd5b813561113c848260208601610fc2565b91505092915050565b600082601f83011261115657600080fd5b813561116684826020860161102e565b91505092915050565b600082601f83011261118057600080fd5b815161119084826020860161109a565b91505092915050565b6000815190506111a881611e1c565b92915050565b6000813590506111bd81611e33565b92915050565b6000815190506111d281611e33565b92915050565b6000806000606084860312156111ed57600080fd5b600084013567ffffffffffffffff81111561120757600080fd5b6112138682870161111b565b935050602084013567ffffffffffffffff81111561123057600080fd5b61123c86828701611145565b925050604061124d86828701611106565b9150509250925092565b6000806000806080858703121561126d57600080fd5b600085013567ffffffffffffffff81111561128757600080fd5b6112938782880161111b565b945050602085013567ffffffffffffffff8111156112b057600080fd5b6112bc87828801611145565b935050604085013567ffffffffffffffff8111156112d957600080fd5b6112e58782880161111b565b925050606085013567ffffffffffffffff81111561130257600080fd5b61130e87828801611145565b91505092959194509250565b60006020828403121561132c57600080fd5b600082015167ffffffffffffffff81111561134657600080fd5b6113528482850161116f565b91505092915050565b60006020828403121561136d57600080fd5b600061137b84828501611199565b91505092915050565b60006020828403121561139657600080fd5b60006113a4848285016111c3565b91505092915050565b600080600080608085870312156113c357600080fd5b60006113d1878288016111ae565b94505060206113e287828801611106565b93505060406113f387828801611106565b925050606061140487828801611106565b91505092959194509250565b6000806000806080858703121561142657600080fd5b6000611434878288016111ae565b945050602061144587828801611106565b935050604085013567ffffffffffffffff81111561146257600080fd5b61146e8782880161111b565b925050606085013567ffffffffffffffff81111561148b57600080fd5b61149787828801611145565b91505092959194509250565b60006114af83836114d3565b60208301905092915050565b60006114c783836116e4565b60208301905092915050565b6114dc81611afd565b82525050565b6114eb81611afd565b82525050565b60006114fc82611998565b61150681856119de565b935061151183611978565b8060005b8381101561154257815161152988826114a3565b9750611534836119c4565b925050600181019050611515565b5085935050505092915050565b600061155a826119a3565b61156481856119ef565b935061156f83611988565b8060005b838110156115a057815161158788826114bb565b9750611592836119d1565b925050600181019050611573565b5085935050505092915050565b60006115b8826119ae565b6115c28185611a00565b93506115d2818560208601611b7b565b80840191505092915050565b6115e781611b45565b82525050565b6115f681611b69565b82525050565b6000611607826119b9565b6116118185611a0b565b9350611621818560208601611b7b565b61162a81611cb5565b840191505092915050565b6000611642601983611a0b565b915061164d82611cc6565b602082019050919050565b6000611665602683611a0b565b915061167082611cef565b604082019050919050565b6000611688601d83611a0b565b915061169382611d3e565b602082019050919050565b60006116ab602a83611a0b565b91506116b682611d67565b604082019050919050565b60006116ce603683611a0b565b91506116d982611db6565b604082019050919050565b6116ed81611b3b565b82525050565b6116fc81611b3b565b82525050565b600061170e82846115ad565b915081905092915050565b600060408201905061172e60008301856114e2565b61173b60208301846114e2565b9392505050565b600060608201905061175760008301866114e2565b61176460208301856114e2565b61177160408301846116f3565b949350505050565b600060408201905061178e60008301856114e2565b61179b60208301846116f3565b9392505050565b600060208201905081810360008301526117bc818461154f565b905092915050565b60006020820190506117d960008301846115de565b92915050565b600060208201905081810360008301526117f981846115fc565b905092915050565b6000602082019050818103600083015261181a81611635565b9050919050565b6000602082019050818103600083015261183a81611658565b9050919050565b6000602082019050818103600083015261185a8161167b565b9050919050565b6000602082019050818103600083015261187a8161169e565b9050919050565b6000602082019050818103600083015261189a816116c1565b9050919050565b600060a0820190506118b660008301886116f3565b6118c360208301876115ed565b81810360408301526118d581866114f1565b90506118e460608301856114e2565b6118f160808301846116f3565b9695505050505050565b6000611905611916565b90506119118282611bae565b919050565b6000604051905090565b600067ffffffffffffffff82111561193b5761193a611c86565b5b602082029050602081019050919050565b600067ffffffffffffffff82111561196757611966611c86565b5b602082029050602081019050919050565b6000819050602082019050919050565b6000819050602082019050919050565b600081519050919050565b600081519050919050565b600081519050919050565b600081519050919050565b6000602082019050919050565b6000602082019050919050565b600082825260208201905092915050565b600082825260208201905092915050565b600081905092915050565b600082825260208201905092915050565b6000611a2782611b3b565b9150611a3283611b3b565b9250827fffffffffffffffffffffffffffffffffffffffffffffffffffffffffffffffff03821115611a6757611a66611c28565b5b828201905092915050565b6000611a7d82611b3b565b9150611a8883611b3b565b925082611a9857611a97611c57565b5b828204905092915050565b6000611aae82611b3b565b9150611ab983611b3b565b9250817fffffffffffffffffffffffffffffffffffffffffffffffffffffffffffffffff0483118215151615611af257611af1611c28565b5b828202905092915050565b6000611b0882611b1b565b9050919050565b60008115159050919050565b600073ffffffffffffffffffffffffffffffffffffffff82169050919050565b6000819050919050565b6000611b5082611b57565b9050919050565b6000611b6282611b1b565b9050919050565b6000611b7482611b3b565b9050919050565b60005b83811015611b99578082015181840152602081019050611b7e565b83811115611ba8576000848401525b50505050565b611bb782611cb5565b810181811067ffffffffffffffff82111715611bd657611bd5611c86565b5b80604052505050565b6000611bea82611b3b565b91507fffffffffffffffffffffffffffffffffffffffffffffffffffffffffffffffff821415611c1d57611c1c611c28565b5b600182019050919050565b7f4e487b7100000000000000000000000000000000000000000000000000000000600052601160045260246000fd5b7f4e487b7100000000000000000000000000000000000000000000000000000000600052601260045260246000fd5b7f4e487b7100000000000000000000000000000000000000000000000000000000600052604160045260246000fd5b6000601f19601f8301169050919050565b7f496e76616c696420646973747269627574696f6e206461746100000000000000600082015250565b7f416464726573733a20696e73756666696369656e742062616c616e636520666f60008201527f722063616c6c0000000000000000000000000000000000000000000000000000602082015250565b7f416464726573733a2063616c6c20746f206e6f6e2d636f6e7472616374000000600082015250565b7f5361666545524332303a204552433230206f7065726174696f6e20646964206e60008201527f6f74207375636365656400000000000000000000000000000000000000000000602082015250565b7f5361666545524332303a20617070726f76652066726f6d206e6f6e2d7a65726f60008201527f20746f206e6f6e2d7a65726f20616c6c6f77616e636500000000000000000000602082015250565b611e0e81611afd565b8114611e1957600080fd5b50565b611e2581611b0f565b8114611e3057600080fd5b50565b611e3c81611b3b565b8114611e4757600080fd5b5056fea26469706673582212206ad035ea4ca798174d8c21b6e6b91fb7bc0e76fef6fa26a5a9c816bc373e56ea64736f6c63430008040033",
  "linkReferences": {},
  "deployedLinkReferences": {}
}